:020000040800F2
:100000009809002031020008F90E0008E5090008EF
:10001000F50E0008090600088F1A0008000000000D
:10002000000000000000000000000000F5100008C3
:100030009908000800000000890F000881130008DB
:100040004B0200084B0200084B0200084B0200085C
:100050004B0200084B0200084B0200084B0200084C
:100060004B0200084B0200084B0200080D06000876
:100070004B0200084B0200084B0200084B0200082C
:100080004B020008150600084B0200084B0200084E
:100090004B0200084B0200084B0200084B0200080C
:1000A0004B0200084B0200084B0200084B020008FC
:1000B0004B0200084B0200084B0200084B020008EC
:1000C0004B0200084B0200084B0200084B020008DC
:1000D0004B020008E9170008711800084B020008DD
:1000E0004B0200084B0200084B0200084B020008BC
:1000F0004B0200084B0200084B0200084B020008AC
:100100004B0200084B0200084B0200084B0200089B
:100110004B0200084B0200084B0200084B0200088B
:100120004B0200084B0200084B0200084B0200087B
:100130004B0200084B0200084B0200084B0200086B
:100140004B0200084B0200084B0200084B0200085B
:100150004B0200084B0200084B0200084B0200084B
:100160004B0200084B0200084B0200084B0200083B
:100170004B0200084B0200084B0200084B0200082B
:100180004B0200084B02000800F002F800F041F8B2
:100190000AA090E8000C82448344AAF10107DA45E2
:1001A00001D100F036F8AFF2090EBAE80F0013F0F3
:1001B000010F18BFFB1A43F001031847381A00005B
:1001C000581A0000103A24BF78C878C1FAD85207EC
:1001D00024BF30C830C144BF04680C6070470000C1
:1001E0000023002400250026103A28BF78C1FBD840
:1001F000520728BF30C148BF0B607047642900F028
:100200004580002070471FB501F0E6FC1FBD10B50A
:1002100010BD00F0C7F91146FFF7F5FF01F050FCE3
:1002200000F0E5F903B4FFF7F2FF03BC01F038FC7E
:100230000948804709480047FEE7FEE7FEE7FEE77A
:10024000FEE7FEE7FEE7FEE7FEE7FEE704480549B6
:10025000054A064B70470000991300088901000801
:100260009803002098090020980500209805002098
:10027000704700000FB4044910B503AA029800F0BB
:100280007BF910BC5DF814FB000000202DE9F04163
:100290000646002410687529314616A510D0AFF324
:1002A0000080002802DA404213A507E031688A077F
:1002B00001D512A502E0490704D511A5012401E0EA
:1002C000AFF3008000210A2206F1240709E0B0FB09
:1002D000F2FCB0FBF2F302FB1C00303078541846FD
:1002E000491C0028F3D123462A463046BDE8F04198
:1002F00000F0D0B8000000002D0000002B0000002E
:10030000200000002DE9F05F894604464FF0000A06
:10031000DFF874B1FB44C0F820A02046E1688847AC
:10032000002874D0252806D0D4E901219047206AFE
:10033000401C2062F1E700265F462046E1688847BE
:100340002028054607DB312D05D2781910F8200C3E
:1003500008B10643F1E7B00701D526F00406C4F85A
:100360001CA00027C4F818A02A2D09D0284601F0A7
:1003700090FB38B304EB8708303DC8F8185019E0FB
:1003800059F8041B204604EB87029161E168884715
:10039000012F054618D1E069002820DA26F0200652
:1003A0001DE0D8F8180000EB800005EB4000303865
:1003B000C8F818002046E1688847054601F069FB47
:1003C0000028EED1012F0AD02E2D08D12046E16859
:1003D00088477F1C0546022F46F02006C4DBA06933
:1003E000002803DA404246F00106A061F00701D080
:1003F00026F010066C2D0BD0682D09D04C2D39D06D
:100400006A2D35D0742D35D07A2D33D016E038E0F2
:10041000E1682F4620468847B842054609D16C2F2F
:1004200026D04FF48060E1680643204688470546A1
:1004300004E06C2F1AD04FF4807006430DB3A5F181
:100440004100192802D8203546F400664A4629465C
:10045000204626604E46FFF7D1FE80B101280BD022
:10046000F61D26F0070000F1080956E74020E4E7F2
:100470008020D8E70020D6E706F104094DE728469A
:1004800052E7206ABDE8F09FCA1800007047704725
:10049000704770472DE9F0470D469946924604464D
:1004A00000F124080168880604D5E06921F01001F4
:1004B000216000E00120A84201DD471B00E0002789
:1004C000A1697A1902EB0900081AA0612078C00618
:1004D00002D42046AFF30080002608E0D4E90121D1
:1004E0001AF806009047206A401C761C20624E4590
:1004F000F4DB2078C0060AD52046AFF3008006E082
:10050000D4E9012130209047206A401C2062381E27
:10051000A7F10107F4DC07E0D4E9012118F8050090
:100520009047206A401C2062281EA5F10105F3DCDB
:100530002046AFF300802078000602D50220BDE8F7
:10054000F0870120FBE7000001694A1C026108787E
:10055000704700B58FB0CDE9013100210591054903
:100560007944CDE9031011466846FFF7CBFE0FB082
:1005700000BD0000E5FFFFFF074B70B50D467B4453
:10058000FFF7E7FF0446284600F008F810B14FF0E7
:10059000FF3070BD204670BD23150000007B00F0C9
:1005A00080007047754600F02BF8AE46050069469E
:1005B000534620F00700854618B020B5FFF746FEE9
:1005C000BDE820404FF000064FF000074FF0000854
:1005D0004FF0000B21F00701AC46ACE8C009ACE8D5
:1005E000C009ACE8C009ACE8C0098D46704710B539
:1005F0000446AFF300802046BDE81040FFF712BE6E
:10060000004870473803002000BFFEE710B500F037
:10061000EBF910BD10B500F007FA10BD0246094B0A
:100620009A4201D2084801E00648103801F0005310
:100630001BB1064B0B40C36002E0044B0B408360D0
:100640007047000010640240006002407D0F7D0F83
:1006500021B1026842F00102026003E0026822F068
:100660000102026070470000016821F00101016091
:100670000021016041608160C1600161212141610F
:100680004A49884204D13D21484A103A91608CE0A1
:1006900046491831884205D14FF47461434A103AF3
:1006A000916082E041493031884205D14FF47411A4
:1006B0003E4A103A916078E03C494831884205D181
:1006C0004FF07461394A103A91606EE037496031F9
:1006D000884204D13649354A103AD16065E0334941
:1006E0007831884204D13349304A103AD1605CE015
:1006F0002E499031884204D12F492C4A103AD160BA
:1007000053E02A49A831884205D14FF03D51274A8C
:10071000103AD16049E02949884204D13D21274A55
:10072000083A116041E025491831884205D14FF45B
:100730007461224A083A116037E02049303188421A
:1007400005D14FF474111D4A083A11602DE01B4980
:100750004831884205D14FF07461184A083A116057
:1007600023E016496031884204D11149134A121F0F
:1007700011601AE011497831884204D10D490F4ABD
:10078000121F116011E00D499031884204D10A49CD
:100790000A4A121F116008E00849A831884204D1B2
:1007A0004FF03D51054A121F116070471060024022
:1007B0003D000020400F002000003D20106402405A
:1007C00030B503460A46002000240B4DAB4201D24F
:1007D0000A4901E00849103902F000550DB14C6892
:1007E00000E00C68064D2C4004EA02050DB1012022
:1007F00000E0002030BD00001064024000600240B4
:100800007D0F7D0F10B501F080034BB122B143691C
:1008100043F08003436103E0436923F080034361B5
:1008200080290BD02AB1036801F01E042343036022
:1008300004E0036801F01E04A343036010BD000040
:1008400010B500220268134B1A40CC680B68234392
:100850004C6923438C692343CC6923430C6A2343AB
:100860004C6A23438C6A23434C6B23438C6B234396
:100870001A430260426922F00702D1E90B34234394
:100880001A4342610B6943604B6883608B68C360A5
:1008900010BD00003F801CF0704710B5044603E017
:1008A0004FF47A7000F005F8201EA4F10104F7D18E
:1008B00010BD30B5044600F075F8054600BF00F0E5
:1008C00071F8401BA042FAD330BDF0B50A460021B2
:1008D0000023002400BF3DE0012505FA01F315685F
:1008E00005EA03049C4234D105684F000326BE404C
:1008F000B543056015794E00B5400668354305607F
:100900001579012D02D01579022D16D185684F0079
:100910000326BE40B543856055794E00B5408668D4
:1009200035438560456801268E40B543456045687E
:1009300096798E40B6B235434560C5684F000326B0
:10094000BE40B543C560D5794E00B540C668354355
:10095000C560491C1029BFD3F0BDF0B500230024A9
:100960004D07ED0E02FA05F3CE1000F1200555F803
:1009700026504E07F70E0F26BE40B543CF1000F1AC
:10098000200646F82750CE1000F1200555F82650D5
:1009900045EA0304CE1000F1200545F82640F0BDDD
:1009A0004183704700BF0E4A11684FF0E022526940
:1009B0004FF0E0239B69D21A4FF47A735A434FF0F9
:1009C000E0235B69B2FBF3F201EB4103C3EBC1131C
:1009D00002EBC300024A12689142E4D17047000062
:1009E0000800002000BFFEE710B50B490B48FFF7D9
:1009F000E7FE78B101210A4800F04AF900210748D2
:100A0000FFF726FE04490548FFF708FE00200549C8
:100A10000968087010BD000020000010106002403E
:100A2000005400401000002010B514491448FFF78E
:100A3000C7FE10B300211248FFF70AFE0F49104805
:100A4000FFF7ECFD4FF6FF700E49086007E00D4917
:100A50000868411E0B4A116008B900F0B7F90A494D
:100A60000A4800F021F90028F1D00121074800F0E0
:100A70000FF9002006490968087010BD0000202009
:100A8000A060024018000020040000100054004044
:100A90001400002021B1028842F00102028004E02B
:100AA00002884FF6FE731A400280704700B587B087
:100AB0000121694800F06AFA0121480500F076FA40
:100AC00000214FF4001000F081FA0422062163484F
:100AD000FFF743FF042207216048FFF73EFFC020D5
:100AE000059002208DF818008DF8190001208DF86E
:100AF0001A0000208DF81B0005A95848FFF7E5FEF5
:100B00000B208DF8100000208DF811008DF81200D8
:100B100001208DF8130004A800F0F0F911208DF8E1
:100B2000100000208DF811008DF8120001208DF8C2
:100B3000130004A800F0E2F949494A48FFF76EFDA6
:100B400000214848FFF784FD4648FFF78DFD4FF030
:100B50000070454908604548486000208860402092
:100B6000C8604FF6FF700861002048614FF4806054
:100B700088610020C861086248624FF44030886292
:100B80000420C86203200863002048638863354856
:100B9000FFF756FE364933489038FFF73FFD0021F6
:100BA00030489038FFF754FD2E489038FFF75CFD31
:100BB0004FF000702C4908602C4848600020886085
:100BC0004020C8604FF6FF700861002048614FF474
:100BD000806088610020C861086248624FF440303C
:100BE00088620420C8620320086300204863886389
:100BF0001C489038FFF724FE012210211948FFF706
:100C000001FE0122102117489038FFF7FBFD00205C
:100C1000ADF804004BF6FF70ADF806000020ADF80B
:100C200008004FF48060ADF80A000001ADF80C0038
:100C30001048009001210D481038FFF72BFF69463E
:100C40000A48103800F04EF801210848103800F02A
:100C500013F807B000BD00000200200000040240AD
:100C600000003D20A0600240D80200201054004047
:100C70003D008010801A060021B1828842F4006293
:100C8000828004E082884FF2FF731A4082807047AE
:100C900021B1028842F40072028004E002884FF61B
:100CA000FF531A40028070470CB502460020002313
:100CB0000193009300920B0F019321F07F41019B60
:100CC0001BB1009B1433009303E0090C009B183305
:100CD0000093009B1B680B400BB1012000E000203B
:100CE0000CBD00002DE9FF4704460D460026B14625
:100CF0000427DFF8CC80A6884FF6C070064068460F
:100D000000F084F9DDF808802E48B8FBF0F01FFAF7
:100D100080F946EA0906A68020884FF6FE71084051
:100D2000208000262849286888420CD8286840007E
:100D3000B8FBF0F087B2042F00DA04273E4309F134
:100D40000100208427E0E8884BF6FF71884206D135
:100D5000286800EB4000B8FBF0F087B209E0286893
:100D600000EBC00101EB0010B8FBF0F087B247F4D4
:100D70008047C7F30B0008B947F0010747F400406C
:100D800006434FF4967009FB00F04FF47A7190FB24
:100D9000F1F0401C2084A683208840F001002080D0
:100DA00026884FF6F5300640A8886989084306432F
:100DB0002680A889298908432081BDE8FF87000093
:100DC00000127A0040420F00A086010010B503A077
:100DD000FFF750FA4FF0FF3010BD00004932435F7B
:100DE00054696D654F75740D0A0000001CB5012132
:100DF000102000F0CBF801208DF8040000208DF8C1
:100E0000060001208DF8070000208DF80500032062
:100E1000009069460348FFF758FD03210148FFF79A
:100E2000BFFD1CBD001002401CB50121042000F0D4
:100E3000ADF801208DF8040000208DF80600012097
:100E40008DF8070000208DF805004FF40050009049
:100E500069460448FFF739FD4FF400510148FFF798
:100E60009FFD1CBD0008024010B50E4840680D49AA
:100E70000860FFF797FD0B4948600B49C8600948B7
:100E8000406808490968401A06498860FFF78AFDEA
:100E90000549086108460069C968401A0249486165
:100EA00010BD0000140300202003002010B5FFF740
:100EB00079FD06490860FFF775FD0449486008465A
:100EC00040680968401A0149886010BD200300206D
:100ED0007047704710B50348816803A0FFF7CAF94F
:100EE00010BD00002003002025640D0A0000000052
:100EF0007047704700BFFEE77047000070B50021E3
:100F000000230F22C4781CB3174C246804F4E06457
:100F1000C4F5E064C4F30721C1F10404E3B20A415B
:100F200044789C40E1B28478144021430C07210EA0
:100F30000E4C05786155047804F01F050124AC407F
:100F400005786D11AD0005F1E025C5F8004109E017
:100F5000047804F01F050124AC40054D0678761195
:100F600045F8264070BD00000CED00E000E400E014
:100F700080E100E002490143024A1160704700002D
:100F80000000FA050CED00E07047000029B1064AA8
:100F900012680243044B1A6004E0034A1268824359
:100FA000014B1A60704700003038024029B1064AF0
:100FB00012680243044B1A6004E0034A1268824339
:100FC000014B1A60704700004038024029B1064AC0
:100FD00012680243044B1A6004E0034A1268824319
:100FE000014B1A60704700002038024029B1064AC0
:100FF00012680243044B1A6004E0034A12688243F9
:10100000014B1A607047000044380240F0B50021DF
:1010100000220024022500260223324F3F6807F0F9
:101020000C0121B1042905D0082937D105E02E4F44
:10103000076036E02D4F076033E02A4F3F1F3F68BF
:10104000C7F38056274F3F1F3F6807F03F036EB13D
:10105000264FB7FBF3F7DFF88CC0ACF1040CDCF8DB
:1010600000C0CCF3881C07FB0CF40CE01E4FB7FB50
:10107000F3F7DFF870C0ACF1040CDCF800C0CCF37F
:10108000881C07FB0CF4174F3F1F3F68C7F301474D
:101090007F1C7D00B4FBF5F7076002E0124F07608C
:1010A00000BF00BF0F4F3F6807F0F0010909104F64
:1010B0007A5C0768D74047600A4F3F6807F4E05101
:1010C000890A0B4F7A5C4768D7408760054F3F68B5
:1010D00007F46041490B064F7A5C4768D740C76008
:1010E000F0BD0000083802400024F40000127A002D
:1010F0001C0000207047000070B5002400BF1EE0F7
:1011000000F038F9054604EB44000E4901EB80007D
:101110008068281A04EB44010A4A02EB8101C9885D
:1011200088420AD304EB4400114601EB800085603D
:1011300004EB440152F821008047601CC4B2072C24
:10114000DED370BD2C000020002000BF1FE000EBAC
:101150004001104A02EB810189884FF47A7292FBB8
:10116000F1F100EB40020B4B03EB8202D18000EB6C
:1011700040011A4602EB8101C988012905DA0121E3
:1011800000EB400203EB8202D180411CC8B2072869
:10119000DDD370472C0000200CB50020019000909A
:1011A0003448006840F480303249086000BF31485C
:1011B000006800F4003000900198401C01900098F5
:1011C00018B90198B0F5A04FF1D12A48006800F491
:1011D000003010B10120009001E000200090009844
:1011E000012846D123484030006840F08050214912
:1011F000403108602048006840F440401E490860C3
:101200001C48083000681B4908310860084600681F
:1012100040F4004008600846006840F4A0500860B0
:101220001648091F0860081F006840F08070091FF9
:10123000086000BF0F48006800F000700028F9D077
:1012400040F205700E4908600A480830006820F036
:1012500003000849083108600846006840F00200B1
:10126000086000BF03480830006800F00C00082840
:10127000F8D10CBD0038024000700040085440070F
:10128000003C024070B504460D46164640F2E6307A
:10129000844200DD044640F2E630854200DD05462A
:1012A00040F2E630864200DD0646002C00DA0024DB
:1012B000002D00DA0025002E00DA002604F57A71F0
:1012C000064800F048FA05F57A71044800F045FA3E
:1012D00006F57A71014800F042FA70BD0000014045
:1012E000042808D14FF0E021096941F004014FF0D2
:1012F000E022116107E04FF0E021096921F00401CB
:101300004FF0E022116170477FB56846FFF77EFE1F
:101310004FF47A710198B0FBF1F4E4082146481EBD
:10132000B0F1807F00D31BE0481E4FF0E0225061F7
:1013300050170F22002807DA13071E0E0B4B00F080
:101340000F052D1F5E5503E013071D0E084B1D549E
:1013500000BF00204FF0E02290610720106100BF25
:101360006FF00400FFF7BCFF7FBD000018ED00E048
:1013700000E400E001480068704700000C00002015
:1013800000B504480068401C0249086000F0C6FB34
:1013900000BD00000800002010B51548006840F4AA
:1013A0007000134908601348006840F001001149BB
:1013B000086000200F49083108600E4800680E4997
:1013C00008400C4908600D48091D0860081F0068A6
:1013D00020F48020091F0860002006490C310860B5
:1013E000FFF7DAFE4FF0006001498039086010BD58
:1013F00088ED00E000380240FFFFF6FE10300024C8
:1014000030B58BB004460D4601210846FFF7EEFDCE
:1014100001211020FFF7BAFD012209213748FFF70B
:101420009CFA01220B213548FFF797FA01220D2182
:101430003248FFF792FA4FF42850099002208DF8B5
:10144000280003208DF8290000208DF82A000120B3
:101450008DF82B0009A92948FFF737FAA8B2ADF893
:1014600018000020ADF81A000794ADF820008DF8A0
:10147000220006A9224800F075F96020ADF80400AA
:101480000120ADF806000420ADF808000020ADF8FA
:101490001000ADF81400601C400803900020ADF867
:1014A0001200ADF8160001A9154800F053F801A983
:1014B000134800F097F801A9114800F0F3F808214B
:1014C0000F4800F085F808210D4800F0DDF80821EC
:1014D0000B4800F037F90121094800F013F8012109
:1014E000074800F01BF80121054800F023F800220E
:1014F00011461046FFF7C6FE0BB030BD001002408B
:101500000000014021B1028842F08002028004E024
:1015100002884FF67F731A400280704721B102881B
:1015200042F00102028004E002884FF6FE731A4086
:101530000280704731B1B0F8442042F40042A0F874
:10154000442005E0B0F84420C2F30E02A0F8442085
:101550007047000070B5002400220023058C4FF670
:10156000FE7635400584028C8388048B4FF68F7598
:101570002C40B51E2C400D882C43751E2A408D89A9
:101580002A434D882A43104DA84202D00F4DA8424D
:1015900013D14FF6F7752A40CD892A434FF6FB75D4
:1015A0002A408D882A434FF6FF652B404FF6FF55A2
:1015B0002B400D8A2B434D8A2B43838004838D68F7
:1015C0004563028470BD000000000140000401403A
:1015D0000A460021018B4FF6F7731940114301832E
:1015E0007047000070B5002400220023058C4FF6E0
:1015F000EF7635400584028C8388048B48F6FF75AE
:101600002C404FF6FF452C400D884FF6FF7606EA3A
:1016100005252C434FF6DF752A408D8906EA05150E
:101620002A434D8806EA05152A43154DA84202D0E3
:10163000144DA8421DD14FF67F752A40CD894FF633
:10164000FF7606EA05152A434FF6BF752A408D88B6
:1016500006EA05152A434FF6FF352B404FF2FF757A
:101660002B400D8A06EA85052B434D8A06EA85053F
:101670002B43838004838D688563028470BD0000E2
:1016800000000140000401400A460021018B4FF296
:10169000FF7319404FF6FF7303EA022319430183D6
:1016A0007047000070B5002400220023058C4FF61F
:1016B000FF6635400584028C8388848B4FF68F75D6
:1016C0002C404FF6FC752C400D882C434FF6FF55EF
:1016D0002A408D894FF6FF7606EA05252A434D8874
:1016E00006EA05252A43154DA84202D0144DA8420A
:1016F0001DD14FF2FF752A40CD894FF6FF7606EADD
:1017000005252A434FF6FF352A408D8806EA052530
:101710002A434EF6FF752B404DF6FF752B400D8A80
:1017200006EA05152B434D8A06EA05152B438380EF
:1017300084838D68C563028470BD00000000014091
:10174000000401400A460021818B4FF6F7731940CF
:101750001143818370474163704781637047C16360
:101760007047000000220288184B98420ED0184B98
:1017700098420BD0B0F1804F08D0164B984205D05C
:10178000154B984202D0154B984204D14FF68F73F7
:101790001A404B881A43124B984207D0114B98427B
:1017A00004D04FF6FF431A400B891A4302804B685E
:1017B000C3620B880385054B984202D0044B9842C4
:1017C00001D18B7A03860123838270470000014098
:1017D000000401400004004000080040000C0040EC
:1017E000001000400014004010B540F225511D4883
:1017F00000F08EF810B31B4800F044F9C4B21A4848
:10180000008800F40040C8B91748008800F4804000
:1018100060B10A2C03D000201349088020E0124850
:10182000008840F400401049088019E00D2C06D1D2
:101830000D48008840F480400B49088010E00A48B9
:101840000088C0F30D0009490C5407480088401C6B
:101850000549088008460088C72801DD0020088067
:1018600010BD000000100140040000201002002004
:1018700010B540F225511D4800F04AF810B31B483E
:1018800000F000F9C4B21A48008800F40040C8B95A
:101890001748008800F4804060B10A2C03D0002073
:1018A0001349088020E01248008840F400401049A5
:1018B000088019E00D2C06D10D48008840F48040C6
:1018C0000B49088010E00A480088C0F30D00094960
:1018D0000C5407480088401C0549088008460088C9
:1018E000C72801DD0020088010BD00000044004032
:1018F000040000201002002021B1828942F400522D
:10190000828104E082894DF6FF731A40828170471C
:1019100070B50246002400230025002040F66A1618
:10192000B14200D100BFC1F3421501F01F030126EF
:1019300006FA03F3012D02D19689334006E0022D09
:1019400002D1168A334001E0968A33400C120126F8
:1019500006FA04F41688344013B10CB1012000E0FB
:10196000002070BDF0B503460024002600250020AD
:1019700040F66A17B94200D100BF1846C1F34214BD
:1019800001F01F06012707FA06F5012C01D10C30E2
:1019900004E0022C01D1103000E014301AB10768C5
:1019A0002F43076002E00768AF430760F0BD000007
:1019B0002DE9FF4705460E460024A14600BFA0467C
:1019C000B08900B100BF2C8A24F44054F08804434D
:1019D0002C82AC8941F20C608443B0883189084381
:1019E000718908430443AC81AC8A24F44074B08903
:1019F0000443AC826846FFF709FB2048854202D0C9
:101A00001F48854202D1DDF80C9001E0DDF8089016
:101A1000A88900F4004040B109EBC90000EB0910AF
:101A200031684900B0FBF1F707E009EBC90000EBB2
:101A3000091031688900B0FBF1F76420B7FBF0F0C2
:101A400004012009642101FB1078A88900F40040FA
:101A500040B1322000EBC800B0FBF1F000F007000D
:101A6000044308E0322000EB08106421B0FBF1F0E1
:101A700000F00F0004432C81BDE8FF8700100140F7
:101A80000014014001468888C0F30800704700BF79
:101A9000FEE730380A2801D2012070470020704745
:101AA00000BF704700BF054A128802F04002002ABA
:101AB000F9D0C2B2014B9A8070470000001001407B
:101AC0004FF48060FFF756FAFFF71EFC6420FEF724
:101AD000E4FEFFF7A9F9FFF789F94FF4E13000F0D0
:101AE00025F8A82140F6C410FFF78AFCFEF7DEFFB8
:101AF00004A0FEF7BFFBFFF727FB01E0FFF7FCFAAE
:101B0000FCE70000486172647761726520496E6984
:101B1000742046696E6973680D0A00000248006807
:101B2000401C0149086070470C00002010B588B0C7
:101B3000044601210846FFF729FA01211020FFF78A
:101B400055FA072209212248FEF707FF07220A213A
:101B50001F48FEF702FF4FF4C060069002208DF888
:101B60001C008DF81D0000208DF81E0001208DF84E
:101B70001F0006A91648FEF7A8FE02940020ADF843
:101B80000C00ADF80E00ADF81000ADF814000C20FC
:101B9000ADF8120002A90F48FFF70AFF01210D4816
:101BA000FFF7AAFE012240F225510A48FFF7DAFEAC
:101BB00025208DF8040003208DF805008DF806001F
:101BC00001208DF8070001A8FFF798F908B010BDB3
:101BD00000000240001001404FF04070E1EE100A9A
:101BE000704704000008000000000000000200012F
:101BF00000001000141C00080000002080000000FD
:101C0000C4010008941C000880000020180900008E
:101C1000E0010008000000000000000000000000DB
:101C2000000000000000000000000000FFFF0000B6
:101C30000000000001020304010203040607080972
:101C4000690E0008E803000000000000F10E000823
:101C5000F401000000000000D10E0008C8000000E0
:101C600000000000AD0E000864000000000000004D
:101C7000F30E00083200000000000000D30E000840
:101C80001400000000000000D50E00080200000053
:041C90000000000050
:040000050800018965
:00000001FF
