:020000040800F2
:10000000D009002031020008AD100008950B00084F
:10001000A9100008B90700084D1D000800000000E5
:100020000000000000000000000000005D13000858
:10003000490A0008000000003D110008E51500080D
:100040004B0200084B0200084B0200084B0200085C
:100050004B0200084B0200084B0200084B0200084C
:100060004B0200084B0200084B020008BD070008C5
:100070004B0200084B0200084B0200084B0200082C
:100080004B020008C50700084B0200084B0200089D
:100090004B0200084B0200084B0200084B0200080C
:1000A0004B0200084B0200084B0200084B020008FC
:1000B0004B0200084B0200084B0200084B020008EC
:1000C0004B0200084B0200084B0200084B020008DC
:1000D0004B020008511A0008D91A00084B02000808
:1000E0004B0200084B0200084B0200084B020008BC
:1000F0004B0200084B0200084B0200084B020008AC
:100100004B0200084B0200084B0200084B0200089B
:100110004B0200084B0200084B0200084B0200088B
:100120004B0200084B0200084B0200084B0200087B
:100130004B0200084B0200084B0200084B0200086B
:100140004B0200084B0200084B0200084B0200085B
:100150004B0200084B0200084B0200084B0200084B
:100160004B0200084B0200084B0200084B0200083B
:100170004B0200084B0200084B0200084B0200082B
:100180004B0200084B02000800F002F800F041F8B2
:100190000AA090E8000C82448344AAF10107DA45E2
:1001A00001D100F036F8AFF2090EBAE80F0013F0F3
:1001B000010F18BFFB1A43F001031847742D00000C
:1001C000942D0000103A24BF78C878C1FAD852079D
:1001D00024BF30C830C144BF04680C6070470000C1
:1001E0000023002400250026103A28BF78C1FBD840
:1001F000520728BF30C148BF0B607047642900F028
:100200001D81002070471FB502F06FFA1FBD10B5A9
:1002100010BD00F09FFA1146FFF7F5FF01F0B0FDA9
:1002200000F0BDFA03B4FFF7F2FF03BC01F097FD45
:100230000948804709480047FEE7FEE7FEE7FEE77A
:10024000FEE7FEE7FEE7FEE7FEE7FEE704480549B6
:10025000054A064B70470000FD150008890100089B
:10026000D0030020D0090020D0050020D0050020B8
:10027000DFED300AB5EEC00A60EE200ABDEEE01AEE
:1002800011EE100AF1EE10FA38BF401E00EE100A0F
:100290009FED291AB8EEC00A70EEC00A20EE810A5E
:1002A000BCEEC00A10EE100A00EE100A0028B8EEEC
:1002B000C00A10EE810AB8BF002004DBB0F5807FD1
:1002C000C8BF4FF480701D4960EE000AB6EE001AF8
:1002D000DFED1C2A9FED1A2A60EE011A60EE225A09
:1002E00020EE813A20EE022A21EEA01A01EB8000D6
:1002F00073EE655A62EE202AB7EE006A33EE003ADA
:10030000D0EC043A76EE611A71EE600A35EEE20A3C
:1003100033EE413A32EEC21A70EEA10A20EE230A01
:1003200064EE831A04EE200A45EE011A31EE800ACB
:100330007047000083F9223E000080430027000838
:10034000ABAA2A3EABAAAA3EDFED300AB5EEC00A40
:1003500060EE200ABDEEE01A11EE100AF1EE10FA7E
:1003600038BF401E00EE100A9FED291AB8EEC00AF1
:1003700070EEC00A20EE810ABCEEC00A10EE100A30
:1003800000EE100A0028B8EEC00A10EE810AB8BFCD
:10039000002004DBB0F5807FC8BF4FF480701D499A
:1003A00060EE000AB6EE001ADFED1C2A9FED1A2A55
:1003B00060EE011A60EE225A20EE813A20EE022A07
:1003C00021EEA01A01EB800073EE655A62EE202A3E
:1003D000B7EE006A33EE003AD0EC043A76EE611ADA
:1003E00071EE600A35EEE20A33EE413A32EEC21A9D
:1003F00070EEA10A20EE230A64EE831A04EE200AAE
:1004000045EE011A31EE800A7047000083F9223E62
:1004100000008043102B0008ABAA2A3EABAAAA3EDC
:10042000704700000FB4044910B503AA029800F009
:100430007BF910BC5DF814FB000000202DE9F041B1
:100440000646002410687529314616A510D0AFF372
:100450000080002802DA404213A507E031688A07CD
:1004600001D512A502E0490704D511A5012401E038
:10047000AFF3008000210A2206F1240709E0B0FB57
:10048000F2FCB0FBF2F302FB1C003030785418464B
:10049000491C0028F3D123462A463046BDE8F041E6
:1004A00000F0D0B8000000002D0000002B0000007C
:1004B000200000002DE9F05F894604464FF0000A55
:1004C000DFF874B1FB44C0F820A02046E1688847FB
:1004D000002874D0252806D0D4E901219047206A4D
:1004E000401C2062F1E700265F462046E16888470D
:1004F0002028054607DB312D05D2781910F8200C8D
:1005000008B10643F1E7B00701D526F00406C4F8A8
:100510001CA00027C4F818A02A2D09D0284601F0F5
:1005200017FC38B304EB8708303DC8F8185019E0C1
:1005300059F8041B204604EB87029161E168884763
:10054000012F054618D1E069002820DA26F02006A0
:100550001DE0D8F8180000EB800005EB40003038B3
:10056000C8F818002046E1688847054601F0F0FB0E
:100570000028EED1012F0AD02E2D08D12046E168A7
:1005800088477F1C0546022F46F02006C4DBA06981
:10059000002803DA404246F00106A061F00701D0CE
:1005A00026F010066C2D0BD0682D09D04C2D39D0BB
:1005B0006A2D35D0742D35D07A2D33D016E038E041
:1005C000E1682F4620468847B842054609D16C2F7E
:1005D00026D04FF48060E1680643204688470546F0
:1005E00004E06C2F1AD04FF4807006430DB3A5F1D0
:1005F0004100192802D8203546F400664A462946AB
:10060000204626604E46FFF7F9FD80B101280BD049
:10061000F61D26F0070000F1080956E74020E4E740
:100620008020D8E70020D6E706F104094DE72846E8
:1006300052E7206ABDE8F09F542A000070477047D7
:10064000704770472DE9F0470D469946924604469B
:1006500000F124080168880604D5E06921F0100142
:10066000216000E00120A84201DD471B00E00027D7
:10067000A1697A1902EB0900081AA0612078C00666
:1006800002D42046AFF30080002608E0D4E901211F
:100690001AF806009047206A401C761C20624E45DE
:1006A000F4DB2078C0060AD52046AFF3008006E0D0
:1006B000D4E9012130209047206A401C2062381E76
:1006C000A7F10107F4DC07E0D4E9012118F80500DF
:1006D0009047206A401C2062281EA5F10105F3DC2A
:1006E0002046AFF300802078000602D50220BDE846
:1006F000F0870120FBE7000001694A1C02610878CD
:10070000704700B58FB0CDE9013100210591054951
:100710007944CDE9031011466846FFF7CBFE0FB0D0
:1007200000BD0000E5FFFFFF074B70B50D467B44A1
:10073000FFF7E7FF0446284600F008F810B14FF035
:10074000FF3070BD204670BD33160000007B00F006
:1007500080007047754600F02BF8AE4605006946EC
:10076000534620F00700854618B020B5FFF76EFD10
:10077000BDE820404FF000064FF000074FF00008A2
:100780004FF0000B21F00701AC46ACE8C009ACE823
:10079000C009ACE8C009ACE8C0098D46704710B587
:1007A0000446AFF300802046BDE81040FFF73ABD95
:1007B000004870477003002000BFFEE710B500F04E
:1007C000EBF910BD10B500F007FA10BD0246094B59
:1007D0009A4201D2084801E00648103801F000535F
:1007E0001BB1064B0B40C36002E0044B0B4083601F
:1007F0007047000010640240006002407D0F7D0FD2
:1008000021B1026842F00102026003E0026822F0B6
:100810000102026070470000016821F001010160DF
:100820000021016041608160C1600161212141615D
:100830004A49884204D13D21484A103A91608CE0EF
:1008400046491831884205D14FF47461434A103A41
:10085000916082E041493031884205D14FF47411F2
:100860003E4A103A916078E03C494831884205D1CF
:100870004FF07461394A103A91606EE03749603147
:10088000884204D13649354A103AD16065E033498F
:100890007831884204D13349304A103AD1605CE063
:1008A0002E499031884204D12F492C4A103AD16008
:1008B00053E02A49A831884205D14FF03D51274ADB
:1008C000103AD16049E02949884204D13D21274AA4
:1008D000083A116041E025491831884205D14FF4AA
:1008E0007461224A083A116037E020493031884269
:1008F00005D14FF474111D4A083A11602DE01B49CF
:100900004831884205D14FF07461184A083A1160A5
:1009100023E016496031884204D11149134A121F5D
:1009200011601AE011497831884204D10D490F4A0B
:10093000121F116011E00D499031884204D10A491B
:100940000A4A121F116008E00849A831884204D100
:100950004FF03D51054A121F116070471060024070
:100960003D000020400F002000003D2010640240A8
:1009700030B503460A46002000240B4DAB4201D29D
:100980000A4901E00849103902F000550DB14C68E0
:1009900000E00C68064D2C4004EA02050DB1012070
:1009A00000E0002030BD0000106402400060024002
:1009B0007D0F7D0F10B501F080034BB122B143696B
:1009C00043F08003436103E0436923F08003436104
:1009D00080290BD02AB1036801F01E042343036071
:1009E00004E0036801F01E04A343036010BD00008F
:1009F00010B500220268134B1A40CC680B682343E1
:100A00004C6923438C692343CC6923430C6A2343F9
:100A10004C6A23438C6A23434C6B23438C6B2343E4
:100A20001A430260426922F00702D1E90B342343E2
:100A30001A4342610B6943604B6883608B68C360F3
:100A400010BD00003F801CF0704710B5044603E065
:100A50004FF47A7000F005F8201EA4F10104F7D1DC
:100A600010BD30B5044600F075F8054600BF00F033
:100A700071F8401BA042FAD330BDF0B50A46002100
:100A80000023002400BF3DE0012505FA01F31568AD
:100A900005EA03049C4234D105684F000326BE409A
:100AA000B543056015794E00B540066835430560CD
:100AB0001579012D02D01579022D16D185684F00C8
:100AC0000326BE40B543856055794E00B540866823
:100AD00035438560456801268E40B54345604568CD
:100AE00096798E40B6B235434560C5684F000326FF
:100AF000BE40B543C560D5794E00B540C6683543A4
:100B0000C560491C1029BFD3F0BDF0B500230024F7
:100B10004D07ED0E02FA05F3CE1000F1200555F851
:100B200026504E07F70E0F26BE40B543CF1000F1FA
:100B3000200646F82750CE1000F1200555F8265023
:100B400045EA0304CE1000F1200545F82640F0BD2B
:100B50004183704700BF0E4A11684FF0E02252698E
:100B60004FF0E0239B69D21A4FF47A735A434FF047
:100B7000E0235B69B2FBF3F201EB4103C3EBC1136A
:100B800002EBC300024A12689142E4D170470000B0
:100B90000800002000BFFEE710B50B490B48FFF727
:100BA000E7FE78B101210A4800F04AF90021074820
:100BB000FFF726FE04490548FFF708FE0020054917
:100BC0000968087010BD000020000010106002408D
:100BD000005400401000002010B514491448FFF7DD
:100BE000C7FE10B300211248FFF70AFE0F49104854
:100BF000FFF7ECFD4FF6FF700E49086007E00D4966
:100C00000868411E0B4A116008B900F0B7F90A499B
:100C10000A4800F021F90028F1D00121074800F02E
:100C20000FF9002006490968087010BD0000202057
:100C3000A060024018000020040000100054004092
:100C40001400002021B1028842F00102028004E079
:100C500002884FF6FE731A400280704700B587B0D5
:100C60000121694800F06CFA0121480500F078FA8A
:100C700000214FF4001000F083FA0422062163489B
:100C8000FFF743FF042207216048FFF73EFFC02023
:100C9000059002208DF818008DF8190001208DF8BC
:100CA0001A0000208DF81B0005A95848FFF7E5FE43
:100CB0000B208DF8100000208DF811008DF8120027
:100CC00001208DF8130004A800F0F2F911208DF82E
:100CD000100000208DF811008DF8120001208DF811
:100CE000130004A800F0E4F949494A48FFF76EFDF3
:100CF00000214848FFF784FD4648FFF78DFD4FF07F
:100D000000704549086045484860002088604020E0
:100D1000C8604FF6FF700861002048614FF48060A2
:100D200088610020C861086248624FF440308862E0
:100D30000420C862032008630020486388633548A4
:100D4000FFF756FE364933489038FFF73FFD002144
:100D500030489038FFF754FD2E489038FFF75CFD7F
:100D60004FF000702C4908602C48486000208860D3
:100D70004020C8604FF6FF700861002048614FF4C2
:100D8000806088610020C861086248624FF440308A
:100D900088620420C86203200863002048638863D7
:100DA0001C489038FFF724FE012210211948FFF754
:100DB00001FE0122102117489038FFF7FBFD0020AB
:100DC000ADF804004BF6FF70ADF806000020ADF85A
:100DD00008004FF48060ADF80A000001ADF80C0087
:100DE0001048009001210D481038FFF72BFF69468D
:100DF0000A48103800F04EF801210848103800F079
:100E000013F807B000BD00000200200000040240FB
:100E100000003D20A0600240E0020020105400408D
:100E20003D008010801A060021B1828842F40062E1
:100E3000828004E082884FF2FF731A4082807047FC
:100E400021B1028842F40072028004E002884FF669
:100E5000FF531A40028070470CB502460020002361
:100E60000193009300920B0F019321F07F41019BAE
:100E70001BB1009B1433009303E0090C009B183353
:100E80000093009B1B680B400BB1012000E0002089
:100E90000CBD00002DE9FF4704460D460026B14673
:100EA0000427DFF8CC80A6884FF6C070064068465D
:100EB00000F086F9DDF808802E48B8FBF0F01FFA44
:100EC00080F946EA0906A68020884FF6FE710840A0
:100ED000208000262849286888420CD828684000CD
:100EE000B8FBF0F087B2042F00DA04273E4309F183
:100EF0000100208427E0E8884BF6FF71884206D184
:100F0000286800EB4000B8FBF0F087B209E02868E1
:100F100000EBC00101EB0010B8FBF0F087B247F422
:100F20008047C7F30B0008B947F0010747F40040BA
:100F300006434FF4967009FB00F04FF47A7190FB72
:100F4000F1F0401C2084A683208840F0010020801E
:100F500026884FF6F5300640A8886989084306437D
:100F60002680A889298908432081BDE8FF870000E1
:100F700000127A0040420F00A086010010B503A0C5
:100F8000FFF750FA4FF0FF3010BD00004932435FC9
:100F900054696D654F75740D0A0000001CB5012180
:100FA000102000F0CDF801208DF8040000208DF80D
:100FB000060001208DF8070000208DF805000320B1
:100FC000009069460348FFF758FD03210148FFF7E9
:100FD000BFFD1CBD001002401CB50121042000F023
:100FE000AFF801208DF8040000208DF806000120E4
:100FF0008DF8070000208DF805004FF40050009098
:1010000069460448FFF739FD4FF400510148FFF7E6
:101010009FFD1CBD0008024010B50E4840680D49F8
:101020000860FFF797FD0B4948600B49C860094805
:10103000406808490968401A06498860FFF78AFD38
:101040000549086108460069C968401A02494861B3
:1010500010BD00001C0300202803002010B5FFF77E
:1010600079FD0749086000F01FF9FFF773FD044997
:101070004860084640680968401A0149886010BD08
:10108000280300207047704710B50348816803A00B
:10109000FFF7C8F910BD00002803002025640D0AE1
:1010A000000000007047704700BFFEE77047000077
:1010B00070B5002100230F22C4781CB3174C24689C
:1010C00004F4E064C4F5E064C4F30721C1F104044E
:1010D000E3B20A4144789C40E1B284781440214351
:1010E0000C07210E0E4C05786155047804F01F059D
:1010F0000124AC4005786D11AD0005F1E025C5F87F
:10110000004109E0047804F01F050124AC40054DBE
:101110000678761145F8264070BD00000CED00E021
:1011200000E400E080E100E002490143024A11606E
:10113000704700000000FA050CED00E07047000069
:1011400029B1064A12680243044B1A6004E0034ABC
:1011500012688243014B1A60704700003038024029
:1011600029B1064A12680243044B1A6004E0034A9C
:1011700012688243014B1A607047000040380240F9
:1011800029B1064A12680243044B1A6004E0034A7C
:1011900012688243014B1A607047000020380240F9
:1011A00029B1064A12680243044B1A6004E0034A5C
:1011B00012688243014B1A607047000044380240B5
:1011C000F0B5002100220024022500260223324F20
:1011D0003F6807F00C0121B1042905D0082937D157
:1011E00005E02E4F076036E02D4F076033E02A4FB1
:1011F0003F1F3F68C7F38056274F3F1F3F6807F0E8
:101200003F036EB1264FB7FBF3F7DFF88CC0ACF1AC
:10121000040CDCF800C0CCF3881C07FB0CF40CE0D9
:101220001E4FB7FBF3F7DFF870C0ACF1040CDCF82D
:1012300000C0CCF3881C07FB0CF4174F3F1F3F681E
:10124000C7F301477F1C7D00B4FBF5F7076002E0A0
:10125000124F076000BF00BF0F4F3F6807F0F0015B
:101260000909104F7A5C0768D74047600A4F3F680A
:1012700007F4E051890A0B4F7A5C4768D7408760D2
:10128000054F3F6807F46041490B064F7A5C476899
:10129000D740C760F0BD0000083802400024F400C9
:1012A00000127A001C00002000B52DED048B83B0E5
:1012B000234890ED001A2349081FF7EE000A9FED1E
:1012C000220A00F018FD1F48001F00F087FD1D4B8B
:1012D0001B1F0A220C21684600F006FE1B489DE8F1
:1012E0000E000EC0194B9A685968186800F0FEF895
:1012F0001348006801F088F941EC190B9FED140BBD
:1013000053EC102B00F0C0FE41EC180B00F08AFEED
:101310000B490860084690ED000ADFED0F0AB4EEB5
:10132000E00AF1EE10FA07DD90ED000ADFED0A0A9F
:1013300030EE600A80ED000A03B0BDEC048B00BD06
:10134000800000204403002000000000640300200F
:101350009A9999999999B93F0000B4437047000050
:1013600070B5002400BF1EE000F036F9054604EB1E
:1013700044000E4901EB80008068281A04EB440108
:101380000A4A02EB8101C98888420AD304EB44006F
:10139000114601EB8000856004EB440152F8210006
:1013A0008047601CC4B2072CDED370BD2C00002027
:1013B000002000BF1FE000EB4001104A02EB81015A
:1013C00089884FF47A7292FBF1F100EB40020B4BEB
:1013D00003EB8202D18000EB40011A4602EB81014F
:1013E000C988012905DA012100EB400203EB8202E2
:1013F000D180411CC8B20728DDD370472C000020E3
:101400000CB50020019000903448006840F4803012
:101410003249086000BF3148006800F40030009095
:101420000198401C0190009818B90198B0F5A04FA0
:10143000F1D12A48006800F4003010B1012000907A
:1014400001E0002000900098012846D12348403058
:10145000006840F080502149403108602048006811
:1014600040F440401E4908601C48083000681B4991
:10147000083108600846006840F4004008600846EB
:10148000006840F4A05008601648091F0860081F53
:10149000006840F08070091F086000BF0F480068B6
:1014A00000F000700028F9D040F205700E49086085
:1014B0000A480830006820F0030008490831086035
:1014C0000846006840F00200086000BF034808308A
:1014D000006800F00C000828F8D10CBD003802406C
:1014E0000070004008544007003C024070B50446BC
:1014F0000E46154640F2E630844200DD044640F2D6
:10150000E630864200DD064640F2E630854200DDE8
:101510000546002C00DA0024002E00DA0026002DFB
:1015200000DA00252146064800F049FA3146044811
:1015300000F047FA2946024800F045FA70BD000065
:1015400000000140042808D14FF0E021096941F072
:1015500004014FF0E022116107E04FF0E02109693A
:1015600021F004014FF0E022116170477FB5684619
:10157000FFF726FE4FF47A710198B0FBF1F4E4080E
:101580002146481EB0F1807F00D31BE0481E4FF07B
:10159000E022506150170F22002807DA13071E0EB1
:1015A0000B4B00F00F052D1F5E5503E013071D0EBA
:1015B000084B1D5400BF00204FF0E022906107202F
:1015C000106100BF6FF00400FFF7BCFF7FBD00009B
:1015D00018ED00E000E400E00148006870470000FA
:1015E0000C00002000B504480068401C0249086057
:1015F00000F0BAFC00BD00000800002010B515483E
:10160000006840F47000134908601348006840F017
:1016100001001149086000200F49083108600E4898
:1016200000680E4908400C4908600D48091D086013
:10163000081F006820F48020091F08600020064968
:101640000C310860FFF7DCFE4FF000600149803983
:10165000086010BD88ED00E000380240FFFFF6FE94
:101660001030002430B58BB004460D4601210846E9
:10167000FFF796FD01211020FFF762FD01220921ED
:101680003848FFF742FA01220B213648FFF73DFAAE
:1016900001220D213348FFF738FA4FF42850099002
:1016A00002208DF8280003208DF8290000208DF8F5
:1016B0002A0001208DF82B0009A92A48FFF7DDF93F
:1016C000A8B2ADF818002020ADF81A000794002049
:1016D000ADF820008DF8220006A9234800F076F925
:1016E0006020ADF804000120ADF806000420ADF83C
:1016F00008000020ADF81000ADF81400601C400890
:1017000003900020ADF81200ADF8160001A91648AC
:1017100000F054F801A9144800F098F801A9124803
:1017200000F0F4F80821104800F086F808210E486F
:1017300000F0DEF808210C4800F038F901210A48D1
:1017400000F014F80121084800F01CF801210648B7
:1017500000F024F8002211461046FFF7C7FE0BB038
:1017600030BD0000001002400000014021B102889D
:1017700042F08002028004E002884FF67F731A4034
:101780000280704721B1028842F00102028004E029
:1017900002884FF6FE731A400280704731B1B0F8EC
:1017A000442042F40042A0F8442005E0B0F8442070
:1017B000C2F30E02A0F844207047000070B5002468
:1017C00000220023058C4FF6FE7635400584028CFE
:1017D0008388048B4FF68F752C40B51E2C400D88E6
:1017E0002C43751E2A408D892A434D882A43104D6B
:1017F000A84202D00F4DA84213D14FF6F7752A40E8
:10180000CD892A434FF6FB752A408D882A434FF62F
:10181000FF652B404FF6FF552B400D8A2B434D8A19
:101820002B43838004838D684563028470BD000070
:1018300000000140000401400A460021018B4FF6E0
:10184000F7731940114301837047000070B50024FD
:1018500000220023058C4FF6EF7635400584028C7C
:101860008388048B48F6FF752C404FF6FF452C40CB
:101870000D884FF6FF7606EA05252C434FF6DF75F7
:101880002A408D8906EA05152A434D8806EA051582
:101890002A43154DA84202D0144DA8421DD14FF63F
:1018A0007F752A40CD894FF6FF7606EA05152A4353
:1018B0004FF6BF752A408D8806EA05152A434FF674
:1018C000FF352B404FF2FF752B400D8A06EA850548
:1018D0002B434D8A06EA85052B43838004838D685C
:1018E0008563028470BD00000000014000040140D7
:1018F0000A460021018B4FF2FF7319404FF6FF7328
:1019000003EA0223194301837047000070B50024E5
:1019100000220023058C4FF6FF6635400584028CBB
:101920008388848B4FF68F752C404FF6FC752C40C6
:101930000D882C434FF6FF552A408D894FF6FF76D0
:1019400006EA05252A434D8806EA05252A43154D52
:10195000A84202D0144DA8421DD14FF2FF752A4073
:10196000CD894FF6FF7606EA05252A434FF6FF3567
:101970002A408D8806EA05252A434EF6FF752B403E
:101980004DF6FF752B400D8A06EA05152B434D8A4F
:1019900006EA05152B43838084838D68C563028422
:1019A00070BD000000000140000401400A46002113
:1019B000818B4FF6F7731940114381837047416360
:1019C000704781637047C16370470000002202883E
:1019D000184B98420ED0184B98420BD0B0F1804F64
:1019E00008D0164B984205D0154B984202D0154BA3
:1019F000984204D14FF68F731A404B881A43124B0A
:101A0000984207D0114B984204D04FF6FF431A403A
:101A10000B891A4302804B68C3620B880385054B10
:101A2000984202D0044B984201D18B7A038601235D
:101A30008382704700000140000401400004004020
:101A400000080040000C004000100040001400405E
:101A500010B540F225511D4800F08EF810B31B4818
:101A600000F044F9C4B21A48008800F40040C8B934
:101A70001748008800F4804060B10A2C03D0002091
:101A80001349088020E01248008840F400401049C3
:101A9000088019E00D2C06D10D48008840F48040E4
:101AA0000B49088010E00A480088C0F30D0009497E
:101AB0000C5407480088401C0549088008460088E7
:101AC000C72801DD0020088010BD00000010014083
:101AD000040000201802002010B540F225511D48D6
:101AE00000F04AF810B31B4800F000F9C4B21A48DD
:101AF000008800F40040C8B91748008800F480400E
:101B000060B10A2C03D000201349088020E012485D
:101B1000008840F400401049088019E00D2C06D1DF
:101B20000D48008840F480400B49088010E00A48C6
:101B30000088C0F30D0009490C5407480088401C78
:101B40000549088008460088C72801DD0020088074
:101B500010BD0000004400400400002018020020D6
:101B600021B1828942F40052828104E082894DF6DB
:101B7000FF731A408281704770B50246002400232B
:101B80000025002040F66A16B14200D100BFC1F323
:101B9000421501F01F03012606FA03F3012D02D1BD
:101BA0009689334006E0022D02D1168A334001E0C7
:101BB000968A33400C12012606FA04F41688344043
:101BC00013B10CB1012000E0002070BDF0B5034658
:101BD000002400260025002040F66A17B94200D1F3
:101BE00000BF1846C1F3421401F01F06012707FA8F
:101BF00006F5012C01D10C3004E0022C01D110308B
:101C000000E014301AB107682F43076002E007684C
:101C1000AF430760F0BD00002DE9FF4705460E46C3
:101C20000024A14600BFA046B08900B100BF2C8AA5
:101C300024F44054F08804432C82AC8941F20C60B7
:101C40008443B08831890843718908430443AC81D7
:101C5000AC8A24F44074B0890443AC826846FFF730
:101C6000AFFA2048854202D01F48854202D1DDF8F4
:101C70000C9001E0DDF80890A88900F4004040B124
:101C800009EBC90000EB091031684900B0FBF1F71E
:101C900007E009EBC90000EB091031688900B0FBCF
:101CA000F1F76420B7FBF0F004012009642101FB87
:101CB0001078A88900F4004040B1322000EBC80041
:101CC000B0FBF1F000F00700044308E0322000EB25
:101CD00008106421B0FBF1F000F00F0004432C81E8
:101CE000BDE8FF87001001400014014001468888CC
:101CF000C0F30800704770B52DED068BF0EE408AFA
:101D0000B0EE608A04460D46B0EE41AAB0EE4A0A33
:101D1000FEF71AFBB0EE409AB0EE4A0AFEF7A8FAB8
:101D2000F0EE409AB0EE490AF0EE690A28EEA01AE9
:101D300008EE401A84ED001A28EE801A08EE201AE8
:101D400085ED001A00BFBDEC068B70BD00BFFEE73D
:101D500030380A2801D2012070470020704700BFA8
:101D60007047000000BF054A128802F04002002AB6
:101D7000F9D0C2B2014B9A807047000000100140B8
:101D80004FF48060FFF7D0F9FFF7F0FB6420FEF717
:101D90005CFEFFF721F9FFF701F94FF4E13000F0A5
:101DA000EBF8A82140F6C410FFF75CFCFEF756FFE5
:101DB00004A0FEF737FBFFF7FBFA01E0FFF7D0FACC
:101DC000FCE70000486172647761726520496E69C2
:101DD000742046696E6973680D0A000070B52DEDB8
:101DE000088B05462C4694ED010ABDEEC00A84ED31
:101DF000050A94ED000A10EE101A084600F004FCE3
:101E000041EC1B0B9FED360B53EC102B00F014FA3A
:101E100041EC190B94ED010AF0EE000A80EE201A55
:101E200011EE106A304600F0EFFB41EC1A0B53EC58
:101E3000192B00F029F941EC180B00F0CDF9A06145
:101E4000D4E90510401AE06103202084A06900282D
:101E500002DD208C401E00E0208C2084E0690028F8
:101E600002DD208C401E00E0208C20846069002868
:101E700003DA208CC0F1070000E0208C2084208C45
:101E8000012802D0208C042809D1A069A060E16952
:101E90006069401AE060A0694042206119E0208C2E
:101EA000022802D0208C052809D1D4E90610084464
:101EB000A0606069E06060694042206109E0E0691B
:101EC000A060E0694042E060D4E905010844404276
:101ED0002061204600F02BF8BDEC088B70BD00009F
:101EE00083C0CAA145B6EB3FFEB5044600209D68FD
:101EF000554395FBF1F0451005EB6205ADB2009539
:101F0000DD68554395FBF1F0451005EB6205ADB278
:101F100001951D69554395FBF1F0451005EB6205F0
:101F2000ADB202959DE8E00084E8E000FEBD47F612
:101F3000FF72D1438368934200DD826083688B42E5
:101F400000DA8160C368934200DDC260C3688B42DF
:101F500000DAC1600369934200DD026103698B42CC
:101F600000DA01617047000002480068401C014926
:101F7000086070470C00002010B588B004460121AD
:101F80000846FFF7DDF801211020FFF709F90722C5
:101F900009212248FEF7B9FD07220A211F48FEF752
:101FA000B4FD4FF4C060069002208DF81C008DF83F
:101FB0001D0000208DF81E0001208DF81F0006A9CD
:101FC0001648FEF75AFD02940020ADF80C00ADF85B
:101FD0000E00ADF81000ADF814000C20ADF81200A2
:101FE00002A90F48FFF718FE01210D48FFF7B8FDC1
:101FF000012240F225510A48FFF7E8FD25208DF81F
:10200000040003208DF805008DF8060001208DF8EE
:10201000070001A8FFF74CF808B010BD000002400F
:102020000010014021F00042A2F16052B2F5801F81
:1020300001F0004328BFD2F17F6C0BD95FEA001C8E
:1020400043EAC20242EB507018BF704728BF20F02D
:1020500001007047B2F5801FBCBF184670474FEAB9
:10206000410C1CF5001F02D2084600F043BB70B5BE
:1020700000F08CF900000089FFF7F6BF4FF0004038
:10208000A0F580007047000010B591EA030F48BF2B
:1020900083F0004300F1D681841A71EB030C05D262
:1020A000121943EB0C03001B61EB0C01DFF824E178
:1020B0004FEA1154A4EB135C1EEA430F18BF9EEACB
:1020C000445F73D023EA0E03DCF1200E21EA0451B1
:1020D00043F4801332D322FA0CFE10EB0E0023FAE5
:1020E0000CFE41EB0E01CCF1200E03FA0EFE10EBBC
:1020F0000E0051F10001B1F5801FCCF1200E32D25B
:1021000001EB045112FA0EF2BDE8104058BF7047BF
:10211000401C38BF5FEA420218BF7047002814BF56
:1021200020F0010041F100014FEA410313F5001FC7
:1021300038BF7047A1F1C04100F076B9012A43EBE6
:102140000302ACF1200CDCF11F0E32BF4FF0000E89
:1021500023FA0CF310EB030041EB0451B4EB115FD5
:10216000D0D0A1EB045101F5801149085FEA30009D
:1021700001EB04510ED350F1000038BF12FA0EFEED
:1021800008D1BDE81040C9E7401C38BF5FEA4202F1
:10219000CAD1C3E7BDE810404FEA410313F5001F61
:1021A00038BF7047A1F1C04100F03EB99EEA445FDC
:1021B00008D011EA5E0FBDE8104004BF01F00041F5
:1021C00000207047BDE8104070B500F0DFF800BF98
:1021D00064FBBE3E0000E0FF4FEA41034FEA535369
:1021E000A3F58063D3F11E03C8BFD3F1210C0CDD2E
:1021F0004FF0004242EAC12242EA505232FA03FC56
:102200008CEAE17CACEBE1707047102BC4BF00207E
:10221000704703F5787CBCF1FF3F04D06FF00042BB
:1022200082EA2100704770B500F0B0F8499224802E
:1022300000207047F2E70000DFF848C170B51CEAE3
:10224000111E1EBF1CEA13159EEA0C0F95EA0C0F17
:1022500000F06F8081EA030423EA4C134EEAD47E37
:1022600021EA4C1141F4801143F48013AE44A1FBE8
:10227000024CA0FB0365AEF17F7E361955EB0C05D1
:10228000A1FB034C4CF10003A0FB021C16EB0C0657
:10229000654153F10003094218BF46F0010613F4EB
:1022A000007F0BD14FEA03314FEA0530340341EA96
:1022B000155140EA16506FF003020AE04FEAC321BD
:1022C0004FEAC520F40241EA555140EA56506FF0FA
:1022D000020202EB2E4201EB025585EACE710AD0D2
:1022E0005FEA440C18BF24F0004450F1000041F1B3
:1022F000000120EAD47040F2FE7C624500D270BD3D
:10230000A84214BF4FF080444FF04044002E08BF55
:102310000024BEF1806FA8BFA1F1C041BDE87040AC
:1023200080F282804FF0000001F1C04101F00041D5
:1023300070479EEA0C0F0CEA131518BF95EA0C0FB4
:1023400006D04FF0000081EA030E0EF0004170BD90
:1023500000F01CF88900013E00F007B800F009B851
:102360004FEA430C5FEA5C5C08D081EA030100F0AD
:102370005BB84FEA410C5FEA5C5CF6D14FF00000BD
:10238000014970470000FF070000F87F0EF1020EC0
:102390002EF0030E5EF8046B364205D4012A43EB9F
:1023A000030515F5001F12D8012841EB010C1CF59F
:1023B000001F0CD80ED14FEAD17C15F5001F0CEB95
:1023C0004C0C0CF1020C08BF4CEBD37C04E04FF03A
:1023D000080C01E04FEAD37C0CEB4C0526FA05F61D
:1023E00006F00706B6F1040C06D20EEB860CBDE82B
:1023F00070404CF0010C6047DFE80CF0090B020262
:102400004FF000414FF00000A1F5002170BD1946CA
:102410001046012851EB010418BFD4F5001484BF05
:10242000002001F0004170BD0808A0F500114FEA3E
:102430003101704710B591EA030F48BF83F00043A4
:102440003FF52AAE841A71EB030C07D212198CF0F7
:10245000004C43EB0C03001B61EB0C01DFF8A4E123
:102460004FEA1154A4EB135C1EEA430F18BF9EEA17
:10247000445F00F0B08023EA6E03524221EA045127
:10248000C3EB6E0338BF5B1EDCF1200E25D322FAAE
:102490000CFE10EB0E0043FA0CFE41EB0E01CCF1EA
:1024A000200E03FA0EFE10EB0E0051F10001CCF1EC
:1024B000200E29D412FA0EF201EB0451BDE81040AF
:1024C00058BF7047401C1CBFB2F1004F7047002836
:1024D0000CBF491C20F00100704712EB020E43EBC9
:1024E000030218BF4FF0010E4EEA4202ACF1200C7D
:1024F000DCF11E0E54D943FA0CFE10EB0E0051F124
:10250000FF31CCF11E0ED5D50EF1010E12FA0EFEE2
:10251000404141EB010101EB445C5FEA5C5C10D996
:1025200010EBDE7001EB045138BFBEF1004FBDE887
:10253000104018BF704700280CBF491C20F0010054
:10254000704730D24FEAD42C11F5001124F4006406
:102550001BD0B1FA81F20B3AA41AA41ED2F12003C7
:10256000914030FA03F31943904001EBCC71002CF9
:1025700001EB0451BDE81040A8BF704701F1C04114
:102580004FF0000001F000417047B0FA80F310FAFC
:1025900003F100D110BDE41A173C4805C90AE4E76D
:1025A00001EB045110BD491001EB0451BDE810408E
:1025B0004FEA300002E04FF0000170474A0008BFC8
:1025C0000042F8D0B2F5001F28BF704701F000416B
:1025D0004FF0000070479EEA445F07D011EA5E0F9B
:1025E000BDE8104004BF002100207047BDE8104046
:1025F00070B5FFF7CBFE00BF40DFF63E83F0004131
:10260000104670470000E0FF43004FEAD30C4FEA4A
:102610003C0C43401FBF40070CF1605113F0FE4FCC
:1026200070471CF0006F03D100200CF00041704790
:102630000CF0004343EA507010B540EACC0000F0C3
:102640000EF800BF000000924FEA0001FFF7ECBE59
:102650004FF000414FF00000A1F5002170470EF14E
:10266000020E2EF0030E5EF8044B244204D44FEA0F
:102670004102B2F17F4F11D84FEA4003B3F17F4FCF
:102680000CD80ED14FEAD07CB2F17F4F0CEB4C0C42
:102690000CF1020C08BF4CEBD17C04E04FF0080CAD
:1026A00001E04FEAD17C0CEB4C0324FA03F404F074
:1026B0000704B4F1040C06D20EEB840CBDE8104004
:1026C0004CF0010C6047DFE80CF0070802024FF005
:1026D0000040A0F5800010BD0846420018BFD2F1AE
:1026E000807288BF00F0004010BD4FF04070E1EEF6
:1026F000100A7047FF2141EAD050C0057047000022
:1027000043EC7F3F0000803F43EC7F3F0FB17F3FB2
:102710006D4E7F3F6DC47E3F24137E3FAC3A7D3FBC
:10272000283B7C3FBE147B3F9DC7793FF853783FE1
:1027300007BA763F0BFA743F4714733F0809713F9D
:102740009ED86E3F5E836C3FA7096A3FD86B673F98
:1027500059AA643F98C5613F05BE5E3F1A945B3F2E
:102760005348583F31DB543F3D4D513F029F4D3F51
:1027700012D1493F03E4453F70D8413FF9AE3D3F98
:102780004268393FF304353FBB85303F4AEB2B3F6E
:102790005636273F9967223FD17F1D3FC07F183FA4
:1027A0002A68133FDA390E3F9BF5083F3D9C033FF3
:1027B000275DFC3EEA5AF13E7533E63E80E8DA3E9C
:1027C000CA7BCF3E15EFC33E2A44B83ED47CAC3E14
:1027D000E59AA03E31A0943E938E883ECCCF783EC1
:1027E000135C603EC2C5473EA2102F3E8340163E9A
:1027F00073B2FA3D36BDC83D05A9963D30FB483D54
:10280000B00AC93C0BA88C24B00AC9BC30FB48BD37
:1028100005A996BD36BDC8BD73B2FABD834016BECC
:10282000A2102FBEC2C547BE135C60BECCCF78BE1F
:10283000938E88BE31A094BEE59AA0BED47CACBE77
:102840002A44B8BE15EFC3BECA7BCFBE80E8DABE4D
:102850007533E6BEEA5AF1BE275DFCBE3D9C03BF60
:102860009BF508BFDA390EBF2A6813BFC07F18BFB7
:10287000D17F1DBF996722BF563627BF4AEB2BBFBA
:10288000BB8530BFF30435BF426839BFF9AE3DBFE9
:1028900070D841BF03E445BF12D149BF029F4DBF6D
:1028A0003D4D51BF31DB54BF534858BF1A945BBFF5
:1028B00005BE5EBF98C561BF59AA64BFD86B67BF2C
:1028C000A7096ABF5E836CBF9ED86EBF080971BF3F
:1028D000471473BF0BFA74BF07BA76BFF85378BFBB
:1028E0009DC779BFBE147BBF283B7CBFAC3A7DBF80
:1028F00024137EBF6DC47EBF6D4E7FBF0FB17FBFFF
:1029000043EC7FBF000080BF43EC7FBF0FB17FBFB0
:102910006D4E7FBF6DC47EBF24137EBFAC3A7DBFBA
:10292000283B7CBFBE147BBF9DC779BFF85378BFDF
:1029300007BA76BF0BFA74BF471473BF080971BF9B
:102940009ED86EBF5E836CBFA7096ABFD86B67BF96
:1029500059AA64BF98C561BF05BE5EBF1A945BBF2C
:10296000534858BF31DB54BF3D4D51BF029F4DBF4F
:1029700012D149BF03E445BF70D841BFF9AE3DBF96
:10298000426839BFF30435BFBB8530BF4AEB2BBF6C
:10299000563627BF996722BFD17F1DBFC07F18BFA2
:1029A0002A6813BFDA390EBF9BF508BF3D9C03BFF1
:1029B000275DFCBEEA5AF1BE7533E6BE80E8DABE9A
:1029C000CA7BCFBE15EFC3BE2A44B8BED47CACBE12
:1029D000E59AA0BE31A094BE938E88BECCCF78BEBF
:1029E000135C60BEC2C547BEA2102FBE834016BE98
:1029F00073B2FABD36BDC8BD05A996BD30FB48BD52
:102A0000B00AC9BC372354A5B00AC93C30FB483DC5
:102A100005A9963D36BDC83D73B2FA3D8340163ECA
:102A2000A2102F3EC2C5473E135C603ECCCF783E1D
:102A3000938E883E31A0943EE59AA03ED47CAC3E75
:102A40002A44B83E15EFC33ECA7BCF3E80E8DA3E4B
:102A50007533E63EEA5AF13E275DFC3E3D9C033F5E
:102A60009BF5083FDA390E3F2A68133FC07F183FB5
:102A7000D17F1D3F9967223F5636273F4AEB2B3FB8
:102A8000BB85303FF304353F4268393FF9AE3D3FE7
:102A900070D8413F03E4453F12D1493F029F4D3F6B
:102AA0003D4D513F31DB543F5348583F1A945B3FF3
:102AB00005BE5E3F98C5613F59AA643FD86B673F2A
:102AC000A7096A3F5E836C3F9ED86E3F0809713F3D
:102AD0004714733F0BFA743F07BA763FF853783FB9
:102AE0009DC7793FBE147B3F283B7C3FAC3A7D3F7E
:102AF00024137E3F6DC47E3F6D4E7F3F0FB17F3FFD
:102B000043EC7F3F0000803F43EC7F3F0FB17F3FAE
:102B1000B00AC9BC00000000B00AC93C30FB483D07
:102B200005A9963D36BDC83D73B2FA3D8340163EB9
:102B3000A2102F3EC2C5473E135C603ECCCF783E0C
:102B4000938E883E31A0943EE59AA03ED47CAC3E64
:102B50002A44B83E15EFC33ECA7BCF3E80E8DA3E3A
:102B60007533E63EEA5AF13E275DFC3E3D9C033F4D
:102B70009BF5083FDA390E3F2A68133FC07F183FA4
:102B8000D17F1D3F9967223F5636273F4AEB2B3FA7
:102B9000BB85303FF304353F4268393FF9AE3D3FD6
:102BA00070D8413F03E4453F12D1493F029F4D3F5A
:102BB0003D4D513F31DB543F5348583F1A945B3FE2
:102BC00005BE5E3F98C5613F59AA643FD86B673F19
:102BD000A7096A3F5E836C3F9ED86E3F0809713F2C
:102BE0004714733F0BFA743F07BA763FF853783FA8
:102BF0009DC7793FBE147B3F283B7C3FAC3A7D3F6D
:102C000024137E3F6DC47E3F6D4E7F3F0FB17F3FEB
:102C100043EC7F3F0000803F43EC7F3F0FB17F3F9D
:102C20006D4E7F3F6DC47E3F24137E3FAC3A7D3FA7
:102C3000283B7C3FBE147B3F9DC7793FF853783FCC
:102C400007BA763F0BFA743F4714733F0809713F88
:102C50009ED86E3F5E836C3FA7096A3FD86B673F83
:102C600059AA643F98C5613F05BE5E3F1A945B3F19
:102C70005348583F31DB543F3D4D513F029F4D3F3C
:102C800012D1493F03E4453F70D8413FF9AE3D3F83
:102C90004268393FF304353FBB85303F4AEB2B3F59
:102CA0005636273F9967223FD17F1D3FC07F183F8F
:102CB0002A68133FDA390E3F9BF5083F3D9C033FDE
:102CC000275DFC3EEA5AF13E7533E63E80E8DA3E87
:102CD000CA7BCF3E15EFC33E2A44B83ED47CAC3EFF
:102CE000E59AA03E31A0943E938E883ECCCF783EAC
:102CF000135C603EC2C5473EA2102F3E8340163E85
:102D000073B2FA3D36BDC83D05A9963D30FB483D3E
:102D1000B00AC93C0BA80C25B00AC9BC30FB48BDA1
:102D200005A996BD36BDC8BD73B2FABD834016BEB7
:102D3000A2102FBEC2C547BE135C60BECCCF78BE0A
:102D4000938E88BE31A094BEE59AA0BED47CACBE62
:102D50002A44B8BE15EFC3BECA7BCFBE80E8DABE38
:102D60007533E6BEEA5AF1BE275DFCBE3D9C03BF4B
:102D70009BF508BFDA390EBF2A6813BFC07F18BFA2
:102D8000D17F1DBF996722BF563627BF4AEB2BBFA5
:102D9000BB8530BFF30435BF426839BFF9AE3DBFD4
:102DA00070D841BF03E445BF12D149BF029F4DBF58
:102DB0003D4D51BF31DB54BF534858BF1A945BBFE0
:102DC00005BE5EBF98C561BF59AA64BFD86B67BF17
:102DD000A7096ABF5E836CBF9ED86EBF080971BF2A
:102DE000471473BF0BFA74BF07BA76BFF85378BFA6
:102DF0009DC779BFBE147BBF283B7CBFAC3A7DBF6B
:102E000024137EBF6DC47EBF6D4E7FBF0FB17FBFE9
:102E100043EC7FBF000080BF43EC7FBF0FB17FBF9B
:102E20006D4E7FBF6DC47EBF24137EBFAC3A7DBFA5
:102E3000283B7CBFBE147BBF9DC779BFF85378BFCA
:102E400007BA76BF0BFA74BF471473BF080971BF86
:102E50009ED86EBF5E836CBFA7096ABFD86B67BF81
:102E600059AA64BF98C561BF05BE5EBF1A945BBF17
:102E7000534858BF31DB54BF3D4D51BF029F4DBF3A
:102E800012D149BF03E445BF70D841BFF9AE3DBF81
:102E9000426839BFF30435BFBB8530BF4AEB2BBF57
:102EA000563627BF996722BFD17F1DBFC07F18BF8D
:102EB0002A6813BFDA390EBF9BF508BF3D9C03BFDC
:102EC000275DFCBEEA5AF1BE7533E6BE80E8DABE85
:102ED000CA7BCFBE15EFC3BE2A44B8BED47CACBEFD
:102EE000E59AA0BE31A094BE938E88BECCCF78BEAA
:102EF000135C60BEC2C547BEA2102FBE834016BE83
:102F000073B2FABD36BDC8BD05A996BD30FB48BD3C
:102F1000B00AC9BC9E3B8DA5B00AC93C040000089C
:102F2000000000000000000200010000100000008E
:102F3000502F00080000002084000000C401000899
:102F4000D42F0008840000204C090000E001000894
:102F50000000000000000000000000000000000071
:102F60000000000000000000FFFF00000000000063
:102F700001020304010203040607080919100008EE
:102F8000E803000000000000A5100008F4010000A4
:102F90000000000085100008C800000000000000CC
:102FA0005D1000086400000000000000A710000889
:102FB000320000000000000087100008140000002C
:102FC000000000008910000802000000000000005E
:042FD00000000000FD
:040000050800018965
:00000001FF
